{
  "contractName": "HelloWorld",
  "abi": [
    {
      "inputs": [],
      "name": "greet",
      "outputs": [
        {
          "internalType": "string",
          "name": "",
          "type": "string"
        }
      ],
      "stateMutability": "nonpayable",
      "type": "function"
    }
  ],
  "bytecode": "0x608060405234801561001057600080fd5b5061026d806100206000396000f3fe608060405234801561001057600080fd5b506004361061002b5760003560e01c8063cfae321714610030575b600080fd5b61003861004e565b60405161004591906101a9565b60405180910390f35b606060008054906101000a900473ffffffffffffffffffffffffffffffffffffffff1673ffffffffffffffffffffffffffffffffffffffff163373ffffffffffffffffffffffffffffffffffffffff16146100de576040517f08c379a00000000000000000000000000000000000000000000000000000000081526004016100d590610217565b60405180910390fd5b6040518060400160405280600b81526020017f48656c6c6f20576f726c64000000000000000000000000000000000000000000815250905090565b600081519050919050565b600082825260208201905092915050565b60005b83811015610153578082015181840152602081019050610138565b60008484015250505050565b6000601f19601f8301169050919050565b600061017b82610119565b6101858185610124565b9350610195818560208601610135565b61019e8161015f565b840191505092915050565b600060208201905081810360008301526101c38184610170565b905092915050565b7f596f7520617265206e6f7420617574686f72697a656400000000000000000000600082015250565b6000610201601683610124565b915061020c826101cb565b602082019050919050565b60006020820190508181036000830152610230816101f4565b905091905056fea2646970667358221220f2d77d42e8b71e296342592f1b9c5640773be5ba395da135a9729140376f151864736f6c63430008110033",
  "immutableReferences": {},
  "source": "\n// SPDX-License-Identifier: MIT\n// compiler version must be greater than or equal to 0.8.17 and less than 0.9.0\npragma solidity ^0.8.17;\n\ncontract HelloWorld {\n\n    address owner;\n\n    modifier onlyOwner{\n        require( msg.sender == owner, \"You are not authorized\" );\n        _;\n    }\n\n    function greet() public onlyOwner returns ( string memory){\n        return \"Hello World\";\n    }\n}\n",
  "sourcePath": "/workspace/solidity_starter/contracts/HelloWorld.sol",
  "compiler": {
    "name": "solc",
    "version": "0.8.17+commit.8df45f5f.Emscripten.clang"
  },
  "schemaVersion": "3.4.11",
  "updatedAt": "2023-01-17T18:07:27.282Z",
  "networkType": "ethereum",
  "devdoc": {
    "kind": "dev",
    "methods": {},
    "version": 1
  },
  "userdoc": {
    "kind": "user",
    "methods": {},
    "version": 1
  }
}